:100000000C94B8010C945C040C94D5010C941B0462
:100010000C94D5010C94D5010C94D5010C94D50108
:100020000C94D5010C94D5010C94D5010C94D501F8
:100030000C94D5010C94D5010C94D5010C94D501E8
:100040000C94D5010C94D5010C94D5010C94D501D8
:100050000C94D5010C94D5010C94D5010C94D501C8
:100060000C94D5010C94D5010C94D5010C94D501B8
:10007000000000000000000000065F5F06000000B6
:100080000007070007070000147F7F147F7F14001C
:10009000242E6B6B3A120000466630180C66620024
:1000A000307A4F5D377A48000407030000000000F3
:1000B000001C3E63410000000041633E1C00000044
:1000C000082A3E1C1C3E2A0808083E3E080800007C
:1000D00000A0E06000000000080808080808000010
:1000E00000006060000000006030180C0603010092
:1000F0003E7F594D7F3E000042427F7F40400000DE
:10010000627359496F660000226349497F360000D7
:10011000181C16137F7F1000276745457D390000A6
:100120003C7E4B4979300000036371190F070000D2
:10013000367F49497F360000064F49693F1E00005F
:1001400000006C6C0000000000A0EC6C00000000DF
:10015000081C366341000000141414141414000029
:10016000004163361C080000020351590F060000CD
:100170003E7F415D5D1F1E007C7E13137E7C000070
:10018000417F7F49497F36001C3E63414163220025
:10019000417F7F41637F1C00417F7F495D41630058
:1001A000417F7F491D0103001C3E63415173720072
:1001B0007F7F08087F7F000000417F7F41000000B3
:1001C000307040417F3F0100417F7F081C77630012
:1001D000417F7F41406070007F7F060C067F7F007B
:1001E0007F7F060C187F7F001C3E6341633E1C002E
:1001F000417F7F49090F06001E3F21717F5E00008D
:10020000417F7F19396F460026674D597B320000C8
:1002100003417F7F410300007F7F40407F7F0000DC
:100220001F3F60603F1F00007F7F3018307F7F00DE
:1002300063771C081C776300074F78784F0700002E
:100240006773594D47637100007F7F414100000093
:100250000103060C183060000041417F7F00000060
:10026000080C0603060C0800808080808080808057
:100270000000030704000000207454543C78400040
:10028000413F7F44447C3800387C44446C28000063
:10029000307848493F7F4000387C54545C18000057
:1002A000487E7F490302000098BCA4A4F87C0400A7
:1002B000417F7F08047C780000447D7D4000000081
:1002C00040C484FD7D000000417F7F10386C4400F5
:1002D00000417F7F400000007C7C0C180C7C780083
:1002E0007C7C04047C780000387C44447C3800002A
:1002F00084FCF8A4243C1800183C24A4F8FC8400D6
:10030000447C78441C180000485C54547424000059
:1003100000043E7F442400003C7C40403C7C400084
:100320001C3C60603C1C00003C7C6030607C3C00FD
:10033000446C3810386C44009CBCA0A0FC7C0000CD
:100340004C64745C4C64000008083E774141000036
:1003500000000077770000004141773E0808000068
:10036000020301030203010018181818FF7E3C184D
:1003700011241FBECFEFD4E0DEBFCDBF13E0A0E05D
:10038000B1E0E6E5FCE102C005900D92AA33B107A9
:10039000D9F723E0AAE3B3E001C01D92AD34B20760
:1003A000E1F70E94C6060C94290E0C9400001DBCB7
:1003B0001CBC81E090E09BBD8ABD8FB580648FBD81
:1003C0008EB589608EBD81B3806281BB0895CF9266
:1003D000DF92EF92FF920F931F93CF938C01E0E097
:1003E000F4E110826081FC01C181C617F8F070E071
:1003F00080E090E00E9469086B017C016C2F70E046
:1004000080E090E00E946B089B01AC01C701B6013F
:100410000E94C10720E030E048EC52E40E94F70857
:100420000E943308CCE9C60FC19511C02C2F30E0D3
:10043000862F90E0821B930B6FEF70E0621B730BB3
:100440000E94640984E6869FC02D1124C1956091A5
:100450000014F80110811617E8F070E080E090E0D9
:100460000E9469086B017C01612F70E080E090E0E0
:100470000E946B089B01AC01C701B6010E94C10735
:1004800020E030E048EC52E40E94F7080E94330874
:10049000645610C0212F30E0862F90E0821B930B12
:1004A0006FEF70E0621B730B0E94640984E6869F05
:1004B000602D1124E0E0F4E1808190817C2FCF91C8
:1004C0001F910F91FF90EF90DF90CF900895E0E0A3
:1004D000F4E11082908180810895872F072E000C0F
:1004E000990B99231CF49195819591099C018C3469
:1004F000910524F0171624F482E003C084E001C0C3
:1005000083E0562F062E000C770B77231CF4719591
:100510006195710941E06C3471050CF440E091E0A3
:10052000261737070CF090E0942329F0552314F494
:1005300080E0089581E008950E94010540E060EEAA
:100540008FE00E946E0563E08BE20E94E10485B7B4
:10055000826085BF8BB780648BBF78940895EF92DB
:10056000FF920F931F93CF937C0105EB11E01F9334
:100570000F930E94D7091F930F930E94D709F70189
:100580006081718176956795769567957695679583
:1005900081E30E94E104F70160816295660F607E4D
:1005A00082E30E94E104F70181818F9380818F9320
:1005B00082E191E09F938F930E94D709F7016281B6
:1005C00085E30E94E104F70182811F928F9380E20C
:1005D00091E09F938F930E94D7098DB79EB70C9699
:1005E0000FB6F8949EBF0FBE8DBFC0E01CC0870140
:1005F0000C0F111DF801638186E38C0F0E94E1044A
:10060000F8018381282F082E000C330B3F938F9322
:1006100086E391E09F938F930E94D709CF5F0F905D
:100620000F900F900F90F7018281C81700F381E0BF
:100630000E94640586EB91E09F938F930E94D709F7
:100640000F900F90CF911F910F91FF90EF90089511
:10065000AF92BF92CF92DF92FF920F931F93CF93EF
:10066000DF93CDB7DEB72B970FB6F894DEBF0FBE82
:10067000CDBF5C018CE290E00E94CF0480FF0FC0F0
:1006800086E491E09F938F930E94D70940E061E058
:100690008CE20E946E050F900F9080E029C081FFD0
:1006A0000FC086E691E09F938F930E94D70940E0A8
:1006B00062E08CE20E946E050F900F9081E018C0FE
:1006C0008E010F5F1F4F8BE0F80111928A95E9F7B9
:1006D00086E891E09F938F930E94D7098BE0F80101
:1006E000D50101900D928A95E1F70F900F9076C099
:1006F000811102C081E601C081E7C82ED12CC6015C
:100700000E94CF049927880F991F880F991F880F7F
:10071000991F9A838983C60101960E94CF049595FB
:1007200087959595879595958795959587959595B1
:10073000879529813A81822B932B9A8389839F9372
:100740008F9386EA91E09F938F930E94D709C60109
:1007500004960E94CF048F708B8389EB91E09F9366
:100760008F930E94D7098B811F928F938CEC91E01D
:100770009F938F930E94D7090FB6F894DEBF0FBEE8
:10078000CDBFF12C20C00F2D10E0C6010596800FC3
:10079000911F0E94CF04E4E0F0E0EC0FFD1FE00F9A
:1007A000F11F8083282F082E000C330B3F938F936B
:1007B0008DED91E09F938F930E94D709F3940F9052
:1007C0000F900F900F908B81F816E8F28BE0FE01EE
:1007D0003196D50101900D928A95E1F7C5012B96CE
:1007E0000FB6F894DEBF0FBECDBFDF91CF911F9142
:1007F0000F91FF90DF90CF90BF90AF90089586B19A
:100800008E7F86B987B1816087B984B78E7F84BFB8
:100810008BB780628BBF85B7826085BF8BB78064E2
:100820008BBF789481EF91E09F938F930E94D709BB
:100830000F900F9008951F920F920FB60F921124F0
:100840002F933F934F935F936F937F938F939F93D8
:10085000AF93BF93EF93FF93CF93DF93CDB7DEB703
:100860002B97DEBFCDBF81E080933A0385EB90E00C
:100870009A83898382E08B838FEF8C838D83CE0173
:1008800001960E94AF022B960FB6F894DEBF0FBE02
:10089000CDBFDF91CF91FF91EF91BF91AF919F912C
:1008A0008F917F916F915F914F913F912F910F9019
:1008B0000FBE0F901F9018951F920F920FB60F92B8
:1008C00011242F933F934F935F936F937F938F9355
:1008D0009F93AF93BF93EF93FF93CF93DF93CDB7E6
:1008E000DEB72B97DEBFCDBFCE0101960E94280355
:1008F0002B960FB6F894DEBF0FBECDBFDF91CF9120
:10090000FF91EF91BF91AF919F918F917F916F91E7
:100910005F914F913F912F910F900FBE0F901F90BD
:1009200018950F931F93CF93DF93CDB7DEB72B9717
:100930000FB6F894DEBF0FBECDBF8C01FC018081E5
:10094000282F082E000C330B3F938F9389E092E001
:100950009F938F930E94D709F801608171818281F2
:1009600093810E946D020F900F900F900F90843032
:1009700059F01A82198281E08B83F80180818C837F
:10098000CE0101960E94AF022B960FB6F894DEBFFF
:100990000FBECDBFDF91CF911F910F910895CF93DF
:1009A000C82F88B38F7E88BB83E00E94A8068C2F57
:1009B0000E94A8060E94AD0698B3906198BBCF91A3
:1009C0000895CF93DF93D82FC62F88B38F7E88BB2F
:1009D00082E00E94A8068D2F0E94A8068C2F0E94FC
:1009E000A80688B3806188BBDF91CF91089588B352
:1009F0008F7E88BB80EC0E94A80688B3806188BB8C
:100A00000895CF930E94A0060E94F7048EE00E94F2
:100A1000CF04C82F1F928F938CEF92E09F938F93F8
:100A20000E94D709C07E0F900F900F900F90C03892
:100A300031F088E192E00E94ED0981E043C08CE44E
:100A400092E00E94ED0961EC8AE20E94E10469EE05
:100A500089E20E94E10466E088E20E94E1048AE201
:100A60000E94CF041F928F938CE792E09F938F9305
:100A70000E94D70989E20E94CF041F928F9388E8D1
:100A800092E09F938F930E94D70988E20E94CF043F
:100A9000C82F1F928F9384E992E09F938F930E94B7
:100AA000D7091F92CF938CEF92E09F938F930E9470
:100AB000D7098DB79EB740960FB6F8949EBF0FBE6C
:100AC0008DBF80E0CF91089598B39F7E98BB8068DA
:100AD0000E94A80688B3806188BB08951F93CF93B6
:100AE000DF93182FD62FC42F88B38F7E88BB85E065
:100AF0000E94A806812F0E94A8068D2F0E94A8069A
:100B00008C2F0E94A80688B3806188BBDF91CF91AB
:100B10001F91089585EB92E09F938F930E94D709D0
:100B2000E0E0F0E18EEA808381EA80838AED8083D1
:100B300082E1808388EC808388EA80838FE38083EE
:100B400085ED808380E8808381E8808380E58083F1
:100B500089ED808381E2808380E2808382E08083EC
:100B60008BED808380E380838DEA8083108284EA2A
:100B7000808386EA80838FEA80830F900F900895A8
:100B8000806B809300100895982F9F70E0E0F0E153
:100B9000908382958F708061808308950E94C00544
:100BA00080E00E94C40580E003C0109200128F5FB5
:100BB0008823DCF70895CF93C0E004C08C2F0E94F7
:100BC000CE05CF5FC830D0F380E00E94C00580E042
:100BD0000E94C405CF910895CF93C62F0E94C005EF
:100BE0008C2F0E94C405CF9108959C0190E011C004
:100BF000F901FF27B097EE0FFF1FEE0FFF1FEE0F5B
:100C0000FF1FE90FF11DE059FF4FE491E09300123F
:100C10009F5F983068F30895EF92FF920F931F93B0
:100C2000CF93DF937C01862F642F0E94EC05F701A0
:100C300001900020E9F731978F010E191F09C0E0DC
:100C4000D0E008C0F701EC0FFD1F808190E00E940A
:100C5000F5052196C017D107A8F3DF91CF911F9119
:100C60000F91FF90EF900895AC0180E090E001C0FB
:100C70000196FC01EE0FFF1FE40FF51F208131816B
:100C8000232BB1F70895CF92DF92EF92FF920F934B
:100C90001F93CF93DF938C017B010E94DB05C8017A
:100CA0000E943406D82EC92E9F938F9389EC92E030
:100CB0009F938F930E94D7090F900F900F900F90E2
:100CC000C0E0D0E025C0CE15DF05B1F480E00E9481
:100CD000C4058C2F0E94C0058FE790E00E94F505A7
:100CE000FE01EE0FFF1FE00FF11F4AE06C2F808125
:100CF00091810E940C060BC0FE01EE0FFF1FE00F5A
:100D0000F11F4AE06C2F808191810E940C06219690
:100D10008D2D9C2DC817D907B0F2DF91CF911F916F
:100D20000F91FF90EF90DF90CF90089585B7806886
:100D300085BF80B7806280BF85B38FEF85BB089584
:100D400080EB87BB88B3806188BB81E58DB908954E
:100D50008FB9779BFECF8FB1089580E00E94A806DF
:100D600008955D9BFECF8CB908955F9BFECF8CB13B
:100D7000089510BC89B988E18AB98EE880BD65EB19
:100D800076E081EB96E00E948C0908958FE10E9445
:100D9000B9068EED92E09F938F930E94D7090E942F
:100DA000D7010E9496060E948A050E94FF030E94B6
:100DB0009C0280914103909142030E9467029093AC
:100DC0004203809341030E94DB0560913B037091D5
:100DD0003C0386E091E00E9443060F900F9081E46F
:100DE00093E00E94E70160933D0370933E0380937C
:100DF0003F039093400320911101209310010E9422
:100E00006D0280931101C1E090911001981301C00F
:100E1000C0E091E0823009F090E0C92386E091E0E3
:100E20000E943406AC014150510920913B0330919E
:100E30003C0391E0241735070CF090E0CC2319F126
:100E4000992309F180913E03282F082E000C330BC3
:100E50003F938F9381EF92E09F938F930E94D709E6
:100E600060913B0370913C036F5F7F4F70933C0335
:100E700060933B0386E091E00E9443060F900F9041
:100E80000F900F9036C09091110141E080911001B8
:100E9000891301C040E081E0933009F080E08423B1
:100EA00091E0121613060CF090E0882311F19923BB
:100EB00001F180913E03282F082E000C330B3F9345
:100EC0008F9381EF92E09F938F930E94D709609157
:100ED0003B0370913C036150710970933C03609334
:100EE0003B0386E091E00E9443060F900F900F9025
:100EF0000F9080913A038823B1F110923A038091C8
:100F00003B0390913C038130910599F01CF4892BAF
:100F100039F029C082309105A9F00397E1F023C090
:100F200089E093E09F938F930E94D7090F900F90D1
:100F30001AC08EE093E09F938F930E94D7090F9081
:100F40000F9011C08CE193E09F938F930E94D7097B
:100F50000F900F9008C086E293E09F938F930E94BA
:100F6000D7090F900F908DE393E00E9491042FEF2B
:100F700087E893E1215080409040E1F700C00000F5
:100F80002ECF0E94D5070C94BD080E94B60858F0D9
:100F90000E94AF0840F029F45F3F29F00C94A608A6
:100FA00051110C94F1080C94AC080E94CE0868F31F
:100FB0009923B1F3552391F3951B550BBB27AA2712
:100FC00062177307840738F09F5F5F4F220F331F4C
:100FD000441FAA1FA9F335D00E2E3AF0E0E832D014
:100FE00091505040E695001CCAF72BD0FE2F29D017
:100FF000660F771F881FBB1F261737074807AB07E9
:10100000B0E809F0BB0B802DBF01FF2793585F4F5D
:101010003AF09E3F510578F00C94A6080C94F10824
:101020005F3FE4F3983ED4F3869577956795B7953F
:10103000F7959F5FC9F7880F911D9695879597F94A
:101040000895E1E0660F771F881FBB1F62177307C3
:101050008407BA0720F0621B730B840BBA0BEE1FD8
:1010600088F7E09508950E943A086894B1110C94AD
:10107000F10808950E94D60888F09F5798F0B92F7C
:101080009927B751B0F0E1F0660F771F881F991FBD
:101090001AF0BA95C9F714C0B13091F00E94F00867
:1010A000B1E008950C94F008672F782F8827B85F77
:1010B00039F0B93FCCF3869577956795B395D9F715
:1010C0003EF490958095709561957F4F8F4F9F4F1F
:1010D0000895E89409C097FB3EF49095809570952B
:1010E00061957F4F8F4F9F4F9923A9F0F92F96E974
:1010F000BB279395F695879577956795B795F111E9
:10110000F8CFFAF4BB0F11F460FF1BC06F5F7F4F85
:101110008F4F9F4F16C0882311F096E911C0772397
:1011200021F09EE8872F762F05C0662371F096E8A0
:10113000862F70E060E02AF09A95660F771F881F6F
:10114000DAF7880F9695879597F9089597F99F672D
:1011500080E870E060E008959FEF80EC089500243F
:101160000A941616170618060906089500240A940C
:1011700012161306140605060895092E0394000C92
:1011800011F4882352F0BB0F40F4BF2B11F460FF21
:1011900004C06F5F7F4F8F4F9F4F089557FD90584A
:1011A000440F551F59F05F3F71F04795880F97FB2B
:1011B000991F61F09F3F79F08795089512161306E5
:1011C0001406551FF2CF4695F1DF08C01616170614
:1011D0001806991FF1CF8695710561050894089549
:1011E000E894BB2766277727CB0197F908950E94DB
:1011F0000A090C94BD080E94AF0838F00E94B60896
:1012000020F0952311F00C94A6080C94AC0811243E
:101210000C94F1080E94CE0870F3959FC1F3950FCE
:1012200050E0551F629FF001729FBB27F00DB11D6A
:10123000639FAA27F00DB11DAA1F649F6627B00DFA
:10124000A11D661F829F2227B00DA11D621F739FE3
:10125000B00DA11D621F839FA00D611D221F749FF1
:101260003327A00D611D231F849F600D211D822F38
:10127000762F6A2F11249F5750409AF0F1F088235F
:101280004AF0EE0FFF1FBB1F661F771F881F91508C
:101290005040A9F79E3F510580F00C94A6080C948D
:1012A000F1085F3FE4F3983ED4F386957795679510
:1012B000B795F795E7959F5FC1F7FE2B880F911DB6
:1012C0009695879597F9089597FB072E16F4009445
:1012D00007D077FD09D00E94780907FC05D03EF4BD
:1012E000909581959F4F0895709561957F4F0895D2
:1012F000AA1BBB1B51E107C0AA1FBB1FA617B7073C
:1013000010F0A61BB70B881F991F5A95A9F7809557
:101310009095BC01CD0108950F931F93CF93DF9358
:10132000009731F46115710519F480E090E03AC03E
:101330008B01EC016EE070E081E090E00E94FE0B1A
:10134000FC01892B91F380E883830115110571F06D
:101350001387028781E8838380914303909144033C
:10136000892B21F4F0934403E09343032097C9F0C1
:10137000D187C08783818260838380914503909168
:101380004603892B71F4F0934603E0934503809163
:10139000470390914803892B21F4F0934803E0938D
:1013A0004703CF01DF91CF911F910F910895A0E0E6
:1013B000B0E0EDEDF9E00C94020EAE014B5F5F4F33
:1013C000FA0161917191AF018091450390914603BB
:1013D0000E941D0AE2E00C941E0E0F931F93CF9300
:1013E000DF93E0914503F0914603238121FF1BC069
:1013F0008C01D0E0C0E0F80181918F01609145033C
:1014000070914603DB011896ED91FC9119978823A2
:1014100031F00995892B79F3DFEFCFEFECCF8AE03C
:101420000995892B19F08FEF9FEF02C08D2F9C2F0C
:10143000DF91CF911F910F910895ABE0B0E0E3E20F
:10144000FAE00C94F20D6C017B018A01FC01178219
:101450001682838181FFCCC1CE0101963C01F60149
:101460009381F70193FD859193FF81917F018823FB
:1014700009F4BAC1853239F493FD859193FF8191C6
:101480007F01853229F4B60190E00E94580DE7CF24
:10149000912C212C312CFFE1F315D8F08B3279F00F
:1014A00038F4803279F08332A1F4232D20611DC0FD
:1014B0008D3261F0803369F4232D216016C0832DB5
:1014C0008260382EE32DE4603E2E2AC0F32DF860B2
:1014D0001DC037FC2DC020ED280F2A3040F08E3281
:1014E000B9F436FC81C1232D2064322E19C036FE9A
:1014F00006C08AE0989E200D1124922E11C0EAE0C9
:101500002E9E200D1124222EF32DF0623F2E08C0B6
:101510008C3621F4832D8068382E02C0883641F441
:10152000F70193FD859193FF81917F018111B3CFE5
:10153000982F9F7D9554933028F40C5F1F4F9FE3A5
:1015400099830DC0833631F0833771F0833509F00C
:1015500059C021C0F801808189830E5F1F4F882404
:101560008394912C530113C02801F2E04F0E511CBB
:10157000F801A080B18036FE03C0692D70E002C082
:101580006FEF7FEFC5010E944D0D4C018201F32DDD
:10159000FF773F2E16C0280122E0420E511CF801B1
:1015A000A080B18036FE03C0692D70E002C06FEFED
:1015B0007FEFC5010E943B0D4C01F32DF0683F2EDB
:1015C000820133FC1BC0822D90E088169906B0F48E
:1015D000B60180E290E00E94580D2A94F4CFF50104
:1015E00037FC859137FE81915F01B60190E00E9442
:1015F000580D21102A9421E0821A91088114910437
:1016000071F7E8C0843611F0893641F5F80137FEEC
:1016100007C060817181828193810C5F1F4F08C078
:1016200060817181072E000C880B990B0E5F1F4F94
:10163000F32DFF763F2E97FF09C09095809570950A
:1016400061957F4F8F4F9F4FF0683F2E2AE030E02B
:10165000A3010E94940D882E861845C0853731F469
:10166000232D2F7EB22E2AE030E025C0932D997FC6
:10167000B92E8F36C1F018F4883579F0B5C08037AF
:1016800019F0883721F0B0C0E92FE061BE2EB4FE1A
:101690000DC0FB2DF460BF2E09C034FE0AC0292FF7
:1016A0002660B22E06C028E030E005C020E130E020
:1016B00002C020E132E0F801B7FE07C0608171810D
:1016C000828193810C5F1F4F06C06081718180E031
:1016D00090E00E5F1F4FA3010E94940D882E861884
:1016E000FB2DFF773F2E36FE0DC0232D2E7FA22E21
:1016F000891458F434FE0BC032FC09C0832D8E7E51
:10170000A82E05C0B82CA32C03C0B82C01C0B92C3E
:10171000A4FE0FC0FE01E80DF11D8081803321F48D
:101720009A2D997EA92E09C0A2FE06C0B394B39447
:1017300004C08A2D867809F0B394A3FC11C0A0FEE2
:1017400006C0B21488F4280C922C9B180EC0B21458
:1017500060F4B60180E290E00E94580DB394F7CF98
:10176000B21418F42B1802C0982C212CA4FE10C01F
:10177000B60180E390E00E94580DA2FE17C0A1FCC4
:1017800003C088E790E002C088E590E0B6010CC095
:101790008A2D867859F0A1FE02C08BE201C080E25A
:1017A000A7FC8DE2B60190E00E94580D891438F430
:1017B000B60180E390E00E94580D9A94F7CF8A9486
:1017C000F301E80DF11D8081B60190E00E94580DF3
:1017D0008110F5CF222009F442CEB60180E290E0DC
:1017E0000E94580D2A94F6CFF6018681978102C097
:1017F0008FEF9FEF2B96E2E10C940E0E0F931F9349
:10180000CF93DF93869F8001879F100D969F100DC9
:101810001124C8010E941A0CEC01009729F0A801BC
:1018200060E070E00E94460DCE01DF91CF911F91E4
:101830000F9108950F931F93CF93DF9382309105FB
:1018400010F482E090E0E0914B03F0914C0320E033
:1018500030E0A0E0B0E0309719F140815181028181
:10186000138148175907C8F08417950769F4109732
:1018700031F012960C93129713961C9327C0009385
:101880004B0310934C0322C02115310519F0421768
:10189000530718F49A01BD01EF01DF01F801DBCF16
:1018A00021153105F9F0281B390B2430310580F45E
:1018B0008A819B816115710521F0FB0193838283ED
:1018C00004C090934C0380934B03FE01329644C0B6
:1018D000FE01E20FF31F8193919322503109398366
:1018E00028833AC02091490330914A03232B41F4C5
:1018F000209102013091030130934A032093490360
:1019000020910001309101012115310541F42DB7DD
:101910003EB74091040150910501241B350BE09125
:101920004903F0914A03E217F307A0F42E1B3F0B83
:101930002817390778F0AC014E5F5F4F2417350741
:1019400048F04E0F5F1F50934A0340934903819321
:10195000919302C0E0E0F0E0CF01DF91CF911F91C1
:101960000F910895CF93DF93009709F481C0FC0194
:10197000329713821282A0914B03B0914C031097BF
:1019800081F420813181820F931F2091490330918E
:101990004A032817390751F5F0934A03E0934903A6
:1019A00067C0ED0120E030E0CE17DF0740F44A8148
:1019B0005B819E0141155105F1F0EA01F5CFD3831A
:1019C000C28340815181840F951FC817D90759F4EC
:1019D00088819981840F951F0296918380838A81E3
:1019E0009B81938382832115310529F4F0934C0365
:1019F000E0934B033DC0E901FB83EA834991599190
:101A0000C40FD51FEC17FD0761F480819181840F0D
:101A1000951F0296E90199838883828193819B8334
:101A20008A83E0E0F0E012968D919C9113970097E5
:101A300019F0FD01DC01F7CF8D919C9111979D016B
:101A40002E5F3F4F820F931F2091490330914A032D
:101A50002817390769F4309729F410924C03109233
:101A60004B0302C013821282B0934A03A09349032E
:101A7000DF91CF910895FC010590615070400110F5
:101A8000D8F7809590958E0F9F1F0895DC0101C0B7
:101A90006D9341505040E0F70895FC016150704053
:101AA00001900110D8F7809590958E0F9F1F089593
:101AB0000F931F93CF93DF93FB01238121FD03C07D
:101AC0008FEF9FEF2CC022FF16C0468157812481E3
:101AD00035814217530744F4A081B1819D012F5FE6
:101AE0003F4F318320838C93268137812F5F3F4F77
:101AF0003783268314C08B01EC01FB010084F18540
:101B0000E02D0995892BE1F6D80116968D919C91CF
:101B10001797019617969C938E931697CE01DF9197
:101B2000CF911F910F910895FA01AA27283051F102
:101B3000203181F1E8946F936E7F6E5F7F4F8F4FFE
:101B40009F4FAF4FB1E03ED0B4E03CD0670F781F5D
:101B5000891F9A1FA11D680F791F8A1F911DA11D42
:101B60006A0F711D811D911DA11D20D009F468947B
:101B70003F912AE0269F11243019305D3193DEF623
:101B8000CF010895462F4770405D4193B3E00FD0D9
:101B9000C9F7F6CF462F4F70405D4A3318F0495DC4
:101BA00031FD4052419302D0A9F7EACFB4E0A695A7
:101BB0009795879577956795BA95C9F700976105C9
:101BC000710508959B01AC010A2E0694579547951F
:101BD00037952795BA95C9F7620F731F841F951F14
:101BE000A01D08952F923F924F925F926F927F9225
:101BF0008F929F92AF92BF92CF92DF92EF92FF921D
:101C00000F931F93CF93DF93CDB7DEB7CA1BDB0BC8
:101C10000FB6F894DEBF0FBECDBF09942A8839886D
:101C200048885F846E847D848C849B84AA84B98474
:101C3000C884DF80EE80FD800C811B81AA81B98180
:101C4000CE0FD11D0FB6F894DEBF0FBECDBFED0194
:061C50000895F894FFCF97
:101C560000004D03200009030E032F032603000096
:101C6600040469642073656E743A2025640A0D00C5
:101C76006D73672E6C656E6774682073656E743A53
:101C86002025640A0D00646174612073656E743AE0
:101C96002025640A0D00525830206275666665720A
:101CA600206861732061206E6577206D65737361AE
:101CB6006765200A0D0052583120627566666572A6
:101CC600206861732061206E6577206D657373618E
:101CD6006765200A0D004E65697468657220627535
:101CE60066666572206861732061206D6573736135
:101CF6006765200A0D00726563656976656420690B
:101D0600643A2025640A0A0D004D657373616765A0
:101D16002072656365697665640A0D006D73672ECA
:101D26006C656E6774683A2025640A0D00646174F8
:101D3600612072656365697665643A2025640A0DDB
:101D460000696E7465727275707420696E69746963
:101D5600616C697A65640A0D006A6F7973746963E8
:101D66006B3A2025640A0D00204D4350323531353B
:101D7600206973204E4F5420696E20636F6E66692A
:101D86006775726174696F6E206D6F646520616638
:101D9600746572207265736574202100204D43506E
:101DA6003235313520697320696E20636F6E66693E
:101DB6006775726174696F6E206D6F646520616608
:101DC600746572207265736574202100434E463136
:101DD6003A202564200A0D00434E46323A202564F7
:101DE600200A0D00434E46333A202564200A0D0092
:101DF60069643A2025640A0D0064617461313A20F1
:101E060025640A0D00696E697469616C697A696E88
:101E160067204F4C45440A0D006C656E6774682058
:101E26006F66206C697374202564200A0D00696E44
:101E3600697469616C697A696E67204144430A0D69
:101E4600004A6F79737469636B5F792076616C758C
:101E5600653A202564200A0D00706C6179006B617B
:101E66007272696572656D6F647573006769676123
:101E760073636F72650073657474696E6773006867
:0A1E860069676873636F72650000FE
:00000001FF
