:100000000C94B8010C9453040C94D5010C94120474
:100010000C94D5010C94D5010C94D5010C94D50108
:100020000C94D5010C94D5010C94D5010C94D501F8
:100030000C94D5010C94D5010C94D5010C94D501E8
:100040000C94D5010C94D5010C94D5010C94D501D8
:100050000C94D5010C94D5010C94D5010C94D501C8
:100060000C94D5010C94D5010C94D5010C94D501B8
:10007000000000000000000000065F5F06000000B6
:100080000007070007070000147F7F147F7F14001C
:10009000242E6B6B3A120000466630180C66620024
:1000A000307A4F5D377A48000407030000000000F3
:1000B000001C3E63410000000041633E1C00000044
:1000C000082A3E1C1C3E2A0808083E3E080800007C
:1000D00000A0E06000000000080808080808000010
:1000E00000006060000000006030180C0603010092
:1000F0003E7F594D7F3E000042427F7F40400000DE
:10010000627359496F660000226349497F360000D7
:10011000181C16137F7F1000276745457D390000A6
:100120003C7E4B4979300000036371190F070000D2
:10013000367F49497F360000064F49693F1E00005F
:1001400000006C6C0000000000A0EC6C00000000DF
:10015000081C366341000000141414141414000029
:10016000004163361C080000020351590F060000CD
:100170003E7F415D5D1F1E007C7E13137E7C000070
:10018000417F7F49497F36001C3E63414163220025
:10019000417F7F41637F1C00417F7F495D41630058
:1001A000417F7F491D0103001C3E63415173720072
:1001B0007F7F08087F7F000000417F7F41000000B3
:1001C000307040417F3F0100417F7F081C77630012
:1001D000417F7F41406070007F7F060C067F7F007B
:1001E0007F7F060C187F7F001C3E6341633E1C002E
:1001F000417F7F49090F06001E3F21717F5E00008D
:10020000417F7F19396F460026674D597B320000C8
:1002100003417F7F410300007F7F40407F7F0000DC
:100220001F3F60603F1F00007F7F3018307F7F00DE
:1002300063771C081C776300074F78784F0700002E
:100240006773594D47637100007F7F414100000093
:100250000103060C183060000041417F7F00000060
:10026000080C0603060C0800808080808080808057
:100270000000030704000000207454543C78400040
:10028000413F7F44447C3800387C44446C28000063
:10029000307848493F7F4000387C54545C18000057
:1002A000487E7F490302000098BCA4A4F87C0400A7
:1002B000417F7F08047C780000447D7D4000000081
:1002C00040C484FD7D000000417F7F10386C4400F5
:1002D00000417F7F400000007C7C0C180C7C780083
:1002E0007C7C04047C780000387C44447C3800002A
:1002F00084FCF8A4243C1800183C24A4F8FC8400D6
:10030000447C78441C180000485C54547424000059
:1003100000043E7F442400003C7C40403C7C400084
:100320001C3C60603C1C00003C7C6030607C3C00FD
:10033000446C3810386C44009CBCA0A0FC7C0000CD
:100340004C64745C4C64000008083E774141000036
:1003500000000077770000004141773E0808000068
:10036000020301030203010018181818FF7E3C184D
:1003700011241FBECFEFD4E0DEBFCDBF13E0A0E05D
:10038000B1E0EEE4FBE102C005900D92A630B107AA
:10039000D9F723E0A6E0B3E001C01D92A931B2076E
:1003A000E1F70E944E060C94A50D0C9400001DBCB4
:1003B0001CBC81E090E09BBD8ABD8FB580648FBD81
:1003C0008EB589608EBD81B3806281BB0895CF9266
:1003D000DF92EF92FF920F931F93CF938C01E0E097
:1003E000F4E110826081FC01C181C617F8F070E071
:1003F00080E090E00E94E5076B017C016C2F70E0CB
:1004000080E090E00E94E7079B01AC01C701B601C4
:100410000E943D0720E030E048EC52E40E9473085F
:100420000E94AF07CCE9C60FC19511C02C2F30E058
:10043000862F90E0821B930B6FEF70E0621B730BB3
:100440000E94E00884E6869FC02D1124C19560912A
:100450000014F80110811617E8F070E080E090E0D9
:100460000E94E5076B017C01612F70E080E090E065
:100470000E94E7079B01AC01C701B6010E943D073E
:1004800020E030E048EC52E40E9473080E94AF077D
:10049000645610C0212F30E0862F90E0821B930B12
:1004A0006FEF70E0621B730B0E94E00884E6869F8A
:1004B000602D1124E0E0F4E1808190817C2FCF91C8
:1004C0001F910F91FF90EF90DF90CF900895E0E0A3
:1004D000F4E11082908180810895472F872F770F54
:1004E000990B99231CF49195819591099C018C3469
:1004F000910524F04C3424F082E003C084E001C074
:1005000083E0062E000C770B77231CF47195619520
:10051000710951E06C3471050CF450E091E026173C
:1005200037070CF090E0952329F04C3414F080E06C
:10053000089581E008950E94BA0440E460EE8FE0DF
:100540000E94F60463E08BE20E949A0485B7826001
:1005500085BF8BB780648BBF78940895EF92FF922C
:100560000F931F93CF937C0105EB11E01F930F9323
:100570000E9453091F930F930E945309F701608152
:10058000718176956795769567957695679581E300
:100590000E949A04F70160816295660F607E82E393
:1005A0000E949A04F70181818F9380818F9382E169
:1005B00091E09F938F930E945309F701628185E335
:1005C0000E949A04F70182811F928F9380E291E04A
:1005D0009F938F930E9453098DB79EB70C960FB6C9
:1005E000F8949EBF0FBE8DBFC0E018C087010C0FEE
:1005F000111DF801638186E38C0F0E949A04F801B3
:1006000083811F928F9386E391E09F938F930E9443
:100610005309CF5F0F900F900F900F90F7018281D9
:10062000C81720F381E00E94EC0486EB91E09F93D1
:100630008F930E9453090F900F90CF911F910F91AC
:10064000FF90EF900895AF92BF92CF92DF92FF920A
:100650000F931F93CF93DF93CDB7DEB72B970FB6D2
:10066000F894DEBF0FBECDBF5C018CE290E00E942B
:10067000880480FF0FC086E491E09F938F930E94CF
:10068000530940E061E08CE20E94F6040F900F9065
:1006900080E029C081FF0FC086E691E09F938F9391
:1006A0000E94530940E062E08CE20E94F6040F9041
:1006B0000F9081E018C08E010F5F1F4F8BE0F80193
:1006C00011928A95E9F786E891E09F938F930E94B3
:1006D00053098BE0F801D50101900D928A95E1F75D
:1006E0000F900F9072C0811102C081E601C081E7B6
:1006F000C82ED12CC6010E9488049927880F991F03
:10070000880F991F880F991F9A838983C6010196C4
:100710000E948804959587959595879595958795D9
:10072000959587959595879529813A81822B932B6D
:100730009A8389839F938F9386EA91E09F938F9307
:100740000E945309C60104960E9488048F708B830F
:1007500089EB91E09F938F930E9453098B811F92A5
:100760008F938CEC91E09F938F930E9453090FB667
:10077000F894DEBF0FBECDBFF12C1CC00F2D10E0D2
:10078000C6010596800F911F0E948804E4E0F0E006
:10079000EC0FFD1FE00FF11F80831F928F938DEDF3
:1007A00091E09F938F930E945309F3940F900F90C1
:1007B0000F900F908B81F81608F38BE0FE013196B5
:1007C000D50101900D928A95E1F7C5012B960FB6E0
:1007D000F894DEBF0FBECDBFDF91CF911F910F9177
:1007E000FF90DF90CF90BF90AF90089586B18E7F3D
:1007F00086B987B1816087B984B78E7F84BF8BB794
:1008000080628BBF85B7826085BF8BB780648BBFEA
:10081000789481EF91E09F938F930E9453090F90FA
:100820000F9008951F920F920FB60F9211242F93DD
:100830003F934F935F936F937F938F939F93AF9368
:10084000BF93EF93FF93CF93DF93CDB7DEB72B9793
:10085000DEBFCDBF81E08093060385EB90E09A83F5
:10086000898382E08B838FEF8C838D83CE01019609
:100870000E94AE022B960FB6F894DEBF0FBECDBF1E
:10088000DF91CF91FF91EF91BF91AF919F918F91A8
:100890007F916F915F914F913F912F910F900FBE7C
:1008A0000F901F9018951F920F920FB60F92112460
:1008B0002F933F934F935F936F937F938F939F9368
:1008C000AF93BF93EF93FF93CF93DF93CDB7DEB793
:1008D0002B97DEBFCDBFCE0101960E9423032B963E
:1008E0000FB6F894DEBF0FBECDBFDF91CF91FF9161
:1008F000EF91BF91AF919F918F917F916F915F9198
:100900004F913F912F910F900FBE0F901F90189510
:10091000CF93C82F88B38F7E88BB83E00E943006B8
:100920008C2F0E9430060E94350698B3906198BBC8
:10093000CF910895CF93DF93D82FC62F88B38F7EA2
:1009400088BB82E00E9430068D2F0E9430068C2FDB
:100950000E94300688B3806188BBDF91CF910895F3
:1009600088B38F7E88BB80EC0E94300688B380619C
:1009700088BB0895CF930E9428060E94B0048EE0A1
:100980000E948804C82F1F928F9389EC92E09F9356
:100990008F930E9453098C2F807E0F900F900F90A1
:1009A0000F90803831F089E092E00E94690981E07F
:1009B00011C08DE392E00E9469091F92CF9389ECE8
:1009C00092E09F938F930E9453090F900F900F9086
:1009D0000F9080E0CF91089598B39F7E98BB806878
:1009E0000E94300688B3806188BB08951F93CF931F
:1009F000DF93182FD62FC42F88B38F7E88BB85E056
:100A00000E943006812F0E9430068D2F0E943006F2
:100A10008C2F0E94300688B3806188BBDF91CF9114
:100A20001F91089582E892E09F938F930E9453094B
:100A3000E0E0F0E18EEA808381EA80838AED8083C2
:100A400082E1808388EC808388EA80838FE38083DF
:100A500085ED808380E8808381E8808380E58083E2
:100A600089ED808381E2808380E2808382E08083DD
:100A70008BED808380E380838DEA8083108284EA1B
:100A8000808386EA80838FEA80830F900F90089599
:100A9000806B809300100895982F9F70E0E0F0E144
:100AA000908382958F708061808308950E944805AD
:100AB00080E00E944C0580E003C0109200128F5F1E
:100AC0008823DCF70895CF93C0E004C08C2F0E94E8
:100AD0005605CF5FC830D0F380E00E94480580E023
:100AE0000E944C05CF910895CF93C62F0E944805D0
:100AF0008C2F0E944C05CF9108959C0190E011C06D
:100B0000F901FF27B097EE0FFF1FEE0FFF1FEE0F4B
:100B1000FF1FE90FF11DE059FF4FE491E093001230
:100B20009F5F983068F30895EF92FF920F931F93A1
:100B3000CF93DF937C01862F642F0E947405F70109
:100B400001900020E9F731978F010E191F09C0E0CD
:100B5000D0E008C0F701EC0FFD1F808190E00E94FB
:100B60007D052196C017D107A8F3DF91CF911F9182
:100B70000F91FF90EF900895AC0180E090E001C0EC
:100B80000196FC01EE0FFF1FE40FF51F208131815C
:100B9000232BB1F70895CF92DF92EF92FF920F933C
:100BA0001F93CF93DF938C017B010E946305C801E3
:100BB0000E94BC05D82EC92E9F938F9386E992E0A0
:100BC0009F938F930E9453090F900F900F900F9057
:100BD000C0E0D0E025C0CE15DF05B1F480E00E9472
:100BE0004C058C2F0E9448058FE790E00E947D0500
:100BF000FE01EE0FFF1FE00FF11F4AE06C2F808116
:100C000091810E9494050BC0FE01EE0FFF1FE00FC3
:100C1000F11F4AE06C2F808191810E9494052196FA
:100C20008D2D9C2DC817D907B0F2DF91CF911F9160
:100C30000F91FF90EF90DF90CF90089585B7806877
:100C400085BF80B7806280BF85B38FEF85BB089575
:100C500080EB87BB88B3806188BB81E58DB908953F
:100C60008FB9779BFECF8FB1089580E00E94300648
:100C700008955D9BFECF8CB908955F9BFECF8CB12C
:100C8000089510BC89B988E18AB98EE880BD6DE30A
:100C900076E089E396E00E94080908958FE10E94BA
:100CA00041068BEA92E09F938F930E9453090E9422
:100CB000D7010E941E060E9412050E94F6030E94A0
:100CC0009B0280910D0390910E030E946702909306
:100CD0000E0380930D030E946305609107037091DA
:100CE000080386E091E00E94CB050F900F908DE005
:100CF00093E00E94E7016093090370930A038093D5
:100D00000B0390930C0320911101209310010E947A
:100D10006D0280931101C1E090911001981301C000
:100D2000C0E091E0823009F090E0C92386E091E0D4
:100D30000E94BC05AC01415051092091070330913C
:100D4000080391E0241735070CF090E0CC2319F14B
:100D5000992309F180910A03282F082E000C330BE8
:100D60003F938F938EEB92E09F938F930E94530952
:100D700060910703709108036F5F7F4F70930803C2
:100D80006093070386E091E00E94CB050F900F90DF
:100D90000F900F9036C09091110141E080911001A9
:100DA000891301C040E081E0933009F080E08423A2
:100DB00091E0121613060CF090E0882311F19923AC
:100DC00001F180910A03282F082E000C330B3F936A
:100DD0008F938EEB92E09F938F930E9453096091C3
:100DE00007037091080361507109709308036093C1
:100DF000070386E091E00E94CB050F900F900F90C3
:100E00000F9080910603882309F471CF1092060396
:100E100080910703909108038130910599F01CF4AB
:100E2000892B39F064CF82309105A9F00397E1F066
:100E30005ECF86ED92E09F938F930E9453090F90AF
:100E40000F9055CF8BED92E09F938F930E945309A3
:100E50000F900F904CCF89EE92E09F938F930E945A
:100E600053090F900F9043CF83EF92E09F938F939E
:100E70000E9453090F900F903ACF0E9451070C9493
:100E800039080E94320858F00E942B0840F029F4DB
:100E90005F3F29F00C94220851110C946D080C94BA
:100EA00028080E944A0868F39923B1F3552391F367
:100EB000951B550BBB27AA2762177307840738F0C9
:100EC0009F5F5F4F220F331F441FAA1FA9F335D026
:100ED0000E2E3AF0E0E832D091505040E695001CDA
:100EE000CAF72BD0FE2F29D0660F771F881FBB1F94
:100EF000261737074807AB07B0E809F0BB0B802D72
:100F0000BF01FF2793585F4F3AF09E3F510578F09D
:100F10000C9422080C946D085F3FE4F3983ED4F3E0
:100F2000869577956795B795F7959F5FC9F7880F71
:100F3000911D9695879597F90895E1E0660F771FC3
:100F4000881FBB1F621773078407BA0720F0621B54
:100F5000730B840BBA0BEE1F88F7E09508950E947F
:100F6000B6076894B1110C946D0808950E94520858
:100F700088F09F5798F0B92F9927B751B0F0E1F05A
:100F8000660F771F881F991F1AF0BA95C9F714C00A
:100F9000B13091F00E946C08B1E008950C946C0897
:100FA000672F782F8827B85F39F0B93FCCF3869543
:100FB00077956795B395D9F73EF4909580957095A0
:100FC00061957F4F8F4F9F4F0895E89409C097FB1D
:100FD0003EF490958095709561957F4F8F4F9F4F10
:100FE0009923A9F0F92F96E9BB279395F695879554
:100FF00077956795B795F111F8CFFAF4BB0F11F417
:1010000060FF1BC06F5F7F4F8F4F9F4F16C08823BD
:1010100011F096E911C0772321F09EE8872F762FF3
:1010200005C0662371F096E8862F70E060E02AF034
:101030009A95660F771F881FDAF7880F9695879520
:1010400097F9089597F99F6780E870E060E0089548
:101050009FEF80EC089500240A94161617061806D0
:101060000906089500240A941216130614060506AC
:101070000895092E0394000C11F4882352F0BB0F3D
:1010800040F4BF2B11F460FF04C06F5F7F4F8F4FA0
:101090009F4F089557FD9058440F551F59F05F3FDB
:1010A00071F04795880F97FB991F61F09F3F79F08A
:1010B00087950895121613061406551FF2CF46950C
:1010C000F1DF08C0161617061806991FF1CF86958E
:1010D0007105610508940895E894BB276627772772
:1010E000CB0197F908950E9486080C9439080E9454
:1010F0002B0838F00E94320820F0952311F00C9450
:1011000022080C94280811240C946D080E944A08A7
:1011100070F3959FC1F3950F50E0551F629FF0014A
:10112000729FBB27F00DB11D639FAA27F00DB11D63
:10113000AA1F649F6627B00DA11D661F829F2227EC
:10114000B00DA11D621F739FB00DA11D621F839F73
:10115000A00D611D221F749F3327A00D611D231F49
:10116000849F600D211D822F762F6A2F11249F5797
:1011700050409AF0F1F088234AF0EE0FFF1FBB1F9A
:10118000661F771F881F91505040A9F79E3F510559
:1011900080F00C9422080C946D085F3FE4F3983EB5
:1011A000D4F3869577956795B795F795E7959F5F03
:1011B000C1F7FE2B880F911D9695879597F9089595
:1011C00097FB072E16F4009407D077FD09D00E94F4
:1011D000F40807FC05D03EF4909581959F4F089543
:1011E000709561957F4F0895AA1BBB1B51E107C005
:1011F000AA1FBB1FA617B70710F0A61BB70B881FA7
:10120000991F5A95A9F780959095BC01CD01089535
:101210000F931F93CF93DF93009731F461157105FE
:1012200019F480E090E03AC08B01EC016EE070E0D0
:1012300081E090E00E947A0BFC01892B91F380E819
:1012400083830115110571F01387028781E8838379
:1012500080910F0390911003892B21F4F0931003D8
:10126000E0930F032097C9F0D187C0878381826004
:1012700083838091110390911203892B71F4F09371
:101280001203E09311038091130390911403892BAF
:1012900021F4F0931403E0931303CF01DF91CF9176
:1012A0001F910F910895A0E0B0E0E9E5F9E00C94FA
:1012B0007E0DAE014B5F5F4FFA0161917191AF01FD
:1012C00080911103909112030E949909E2E00C941D
:1012D0009A0D0F931F93CF93DF93E0911103F09139
:1012E0001203238121FF1BC08C01D0E0C0E0F80174
:1012F00081918F016091110370911203DB011896A7
:10130000ED91FC911997882331F00995892B79F398
:10131000DFEFCFEFECCF8AE00995892B19F08FEF43
:101320009FEF02C08D2F9C2FDF91CF911F910F91C6
:101330000895ABE0B0E0EFE9F9E00C946E0D6C01BC
:101340007B018A01FC0117821682838181FFCCC157
:10135000CE0101963C01F6019381F70193FD859141
:1013600093FF81917F01882309F4BAC1853239F452
:1013700093FD859193FF81917F01853229F4B60118
:1013800090E00E94D40CE7CF912C212C312CFFE16E
:10139000F315D8F08B3279F038F4803279F083325B
:1013A000A1F4232D20611DC08D3261F0803369F4DA
:1013B000232D216016C0832D8260382EE32DE4603A
:1013C0003E2E2AC0F32DF8601DC037FC2DC020ED45
:1013D000280F2A3040F08E32B9F436FC81C1232D1B
:1013E0002064322E19C036FE06C08AE0989E200D79
:1013F0001124922E11C0EAE02E9E200D1124222EDF
:10140000F32DF0623F2E08C08C3621F4832D8068C6
:10141000382E02C0883641F4F70193FD859193FF81
:1014200081917F018111B3CF982F9F7D9554933087
:1014300028F40C5F1F4F9FE399830DC0833631F072
:10144000833771F0833509F059C021C0F8018081DC
:1014500089830E5F1F4F88248394912C530113C0FE
:101460002801F2E04F0E511CF801A080B18036FE39
:1014700003C0692D70E002C06FEF7FEFC5010E94CD
:10148000C90C4C018201F32DFF773F2E16C02801B5
:1014900022E0420E511CF801A080B18036FE03C04C
:1014A000692D70E002C06FEF7FEFC5010E94B70C9D
:1014B0004C01F32DF0683F2E820133FC1BC0822DBE
:1014C00090E088169906B0F4B60180E290E00E94A0
:1014D000D40C2A94F4CFF50137FC859137FE819125
:1014E0005F01B60190E00E94D40C21102A9421E003
:1014F000821A91088114910471F7E8C0843611F0C2
:10150000893641F5F80137FE07C06081718182811B
:1015100093810C5F1F4F08C060817181072E000C02
:10152000880B990B0E5F1F4FF32DFF763F2E97FF11
:1015300009C090958095709561957F4F8F4F9F4F13
:10154000F0683F2E2AE030E0A3010E94100D882EA3
:10155000861845C0853731F4232D2F7EB22E2AE020
:1015600030E025C0932D997FB92E8F36C1F018F445
:10157000883579F0B5C0803719F0883721F0B0C0D0
:10158000E92FE061BE2EB4FE0DC0FB2DF460BF2E2E
:1015900009C034FE0AC0292F2660B22E06C028E0FA
:1015A00030E005C020E130E002C020E132E0F80187
:1015B000B7FE07C060817181828193810C5F1F4FEC
:1015C00006C06081718180E090E00E5F1F4FA30133
:1015D0000E94100D882E8618FB2DFF773F2E36FEB9
:1015E0000DC0232D2E7FA22E891458F434FE0BC07B
:1015F00032FC09C0832D8E7EA82E05C0B82CA32CEA
:1016000003C0B82C01C0B92CA4FE0FC0FE01E80D28
:10161000F11D8081803321F49A2D997EA92E09C075
:10162000A2FE06C0B394B39404C08A2D867809F054
:10163000B394A3FC11C0A0FE06C0B21488F4280C19
:10164000922C9B180EC0B21460F4B60180E290E0B8
:101650000E94D40CB394F7CFB21418F42B1802C024
:10166000982C212CA4FE10C0B60180E390E00E94CB
:10167000D40CA2FE17C0A1FC03C088E790E002C012
:1016800088E590E0B6010CC08A2D867859F0A1FE5D
:1016900002C08BE201C080E2A7FC8DE2B60190E0BF
:1016A0000E94D40C891438F4B60180E390E00E94C3
:1016B000D40C9A94F7CF8A94F301E80DF11D808140
:1016C000B60190E00E94D40C8110F5CF222009F4DD
:1016D00042CEB60180E290E00E94D40C2A94F6CF6C
:1016E000F6018681978102C08FEF9FEF2B96E2E192
:1016F0000C948A0D0F931F93CF93DF93869F8001E5
:10170000879F100D969F100D1124C8010E94960B03
:10171000EC01009729F0A80160E070E00E94C20C83
:10172000CE01DF91CF911F910F9108950F931F93D9
:10173000CF93DF938230910510F482E090E0E09146
:101740001703F091180320E030E0A0E0B0E03097FC
:1017500019F1408151810281138148175907C8F05E
:101760008417950769F4109731F012960C9312972D
:1017700013961C9327C0009317031093180322C0DD
:101780002115310519F04217530718F49A01BD01CC
:10179000EF01DF01F801DBCF21153105F9F0281B3E
:1017A000390B2430310580F48A819B8161157105E4
:1017B00021F0FB019383828304C0909318038093EC
:1017C0001703FE01329644C0FE01E20FF31F81931E
:1017D000919322503109398328833AC0209115030F
:1017E00030911603232B41F4209102013091030123
:1017F00030931603209315032091000130910101CD
:101800002115310541F42DB73EB7409104015091A7
:101810000501241B350BE0911503F0911603E21727
:10182000F307A0F42E1B3F0B2817390778F0AC0103
:101830004E5F5F4F2417350748F04E0F5F1F5093E0
:101840001603409315038193919302C0E0E0F0E00A
:10185000CF01DF91CF911F910F910895CF93DF9327
:10186000009709F481C0FC01329713821282A09183
:101870001703B0911803109781F420813181820FF2
:10188000931F20911503309116032817390751F53E
:10189000F0931603E093150367C0ED0120E030E0FC
:1018A000CE17DF0740F44A815B819E014115510547
:1018B000F1F0EA01F5CFD383C28340815181840FD7
:1018C000951FC817D90759F488819981840F951FEE
:1018D0000296918380838A819B81938382832115E1
:1018E000310529F4F0931803E09317033DC0E90193
:1018F000FB83EA8349915991C40FD51FEC17FD076B
:1019000061F480819181840F951F0296E90199838A
:101910008883828193819B838A83E0E0F0E0129642
:101920008D919C911397009719F0FD01DC01F7CF81
:101930008D919C9111979D012E5F3F4F820F931FB8
:1019400020911503309116032817390769F4309751
:1019500029F4109218031092170302C01382128206
:10196000B0931603A0931503DF91CF910895FC0166
:101970000590615070400110D8F7809590958E0FBA
:101980009F1F0895DC0101C06D9341505040E0F766
:101990000895FC016150704001900110D8F78095C6
:1019A00090958E0F9F1F08950F931F93CF93DF93F2
:1019B000FB01238121FD03C08FEF9FEF2CC022FF8D
:1019C00016C046815781248135814217530744F45C
:1019D000A081B1819D012F5F3F4F318320838C9384
:1019E000268137812F5F3F4F3783268314C08B01B9
:1019F000EC01FB010084F185E02D0995892BE1F6CE
:101A0000D80116968D919C911797019617969C93E5
:101A10008E931697CE01DF91CF911F910F9108956C
:101A2000FA01AA27283051F1203181F1E8946F930F
:101A30006E7F6E5F7F4F8F4F9F4FAF4FB1E03ED0B5
:101A4000B4E03CD0670F781F891F9A1FA11D680F53
:101A5000791F8A1F911DA11D6A0F711D811D911D86
:101A6000A11D20D009F468943F912AE0269F1124FB
:101A70003019305D3193DEF6CF010895462F47705F
:101A8000405D4193B3E00FD0C9F7F6CF462F4F70BA
:101A9000405D4A3318F0495D31FD4052419302D018
:101AA000A9F7EACFB4E0A6959795879577956795BE
:101AB000BA95C9F700976105710508959B01AC01BE
:101AC0000A2E06945795479537952795BA95C9F7E5
:101AD000620F731F841F951FA01D08952F923F92C0
:101AE0004F925F926F927F928F929F92AF92BF922E
:101AF000CF92DF92EF92FF920F931F93CF93DF93DA
:101B0000CDB7DEB7CA1BDB0B0FB6F894DEBF0FBE36
:101B1000CDBF09942A88398848885F846E847D8483
:101B20008C849B84AA84B984C884DF80EE80FD8085
:101B30000C811B81AA81B981CE0FD11D0FB6F894FB
:0E1B4000DEBF0FBECDBFED010895F894FFCFBC
:101B4E00000019032000D602DB02FC02F3020000A3
:101B5E00040469642073656E743A2025640A0D00CE
:101B6E006D73672E6C656E6774682073656E743A5C
:101B7E002025640A0D00646174612073656E743AE9
:101B8E002025640A0D005258302062756666657213
:101B9E00206861732061206E6577206D65737361B7
:101BAE006765200A0D0052583120627566666572AF
:101BBE00206861732061206E6577206D6573736197
:101BCE006765200A0D004E6569746865722062753E
:101BDE0066666572206861732061206D657373613E
:101BEE006765200A0D007265636569766564206914
:101BFE00643A2025640A0A0D004D657373616765AA
:101C0E002072656365697665640A0D006D73672ED3
:101C1E006C656E6774683A2025640A0D0064617401
:101C2E00612072656365697665643A2025640A0DE4
:101C3E0000696E7465727275707420696E6974696C
:101C4E00616C697A65640A0D00204D43503235315E
:101C5E0035206973204E4F5420696E20636F6E6677
:101C6E00696775726174696F6E206D6F646520614E
:101C7E0066746572207265736574202100204D4371
:101C8E00503235313520697320696E20636F6E6670
:101C9E00696775726174696F6E206D6F646520611E
:101CAE006674657220726573657420210069643AEA
:101CBE002025640A0D0064617461313A2025640A9E
:101CCE000D00696E697469616C697A696E67204F7F
:101CDE004C45440A0D006C656E677468206F662073
:101CEE006C697374202564200A0D00696E6974692D
:101CFE00616C697A696E67204144430A0D004A6F30
:101D0E0079737469636B5F792076616C75653A20BF
:101D1E002564200A0D00706C6179006B6172726926
:101D2E006572656D6F647573006769676173636F64
:101D3E0072650073657474696E67730068696768AD
:061D4E0073636F72650073
:00000001FF
